:020000041000EA
:1000000000B5324B212058609868022188439860DF
:10001000D860186158612E4B002199600221596106
:100020000121F02299502B49196001219960352056
:1000300000F044F80222904214D00621196600F024
:1000400034F8196E01211966002018661A6600F04E
:100050002CF8196E196E196E052000F02FF8012189
:100060000842F9D1002199601B49196000215960AB
:100070001A491B48016001219960EB211966A021F2
:10008000196600F012F800219960164914480160C1
:100090000121996001BC002800D000471248134993
:1000A000086003C880F30888084703B5996A0420EC
:1000B0000142FBD001200142F8D103BD02B5186610
:1000C0001866FFF7F2FF186E186E02BD00000240BE
:1000D000000000180000070000035F00212200005C
:1000E000F4000018222000A00001001008ED00E03C
:1000F00000000000000000000000000074B24E7A12
:1001000000200420F7010010C3010010C5010010F9
:10011000C1010010C1010010C1010010C101001097
:10012000C1010010C1010010C1010010C701001081
:10013000C1010010C1010010C9010010CB01001065
:10014000CD010010CD010010CD010010CD01001037
:10015000CD010010CD010010CD010010CD01001027
:10016000CD010010CD010010CD010010CD01001017
:10017000CD010010CD010010CD010010CD01001007
:10018000CD010010CD010010CD010010CD010010F7
:10019000CD010010CD010010CD010010CD010010E7
:1001A000CD010010CD010010CD010010CD010010D7
:1001B000CD010010CD010010CD010010CD010010C7
:1001C00000BE00BE00BE00BE00BE00BEEFF3058054
:1001D000103800BEF2EB88713C8A00106C8A001067
:1001E0003402001090A31AE700201F49086006C8D7
:1001F00081F3088810471D48006800282FD10DA4FE
:100200000ECC002902D000F012F8F9E71849194A7B
:10021000002000E001C19142FCD1174988471749ED
:1002200088471749884700BEFDE701C901C29A42C5
:10023000FBD370476C8A0010C0000020500F0020D4
:10024000FC9800100000042000000420FC9800101E
:10025000001004200010042000000000704709482E
:1002600002F0BAFA0047000008ED00E0000000D0FC
:10027000500F00200C2C0020512600108903001084
:10028000452700105756000006005250ABB360538C
:10029000F487001006005250861C030204880010E8
:1002A000060052505422A29D0C88001005005250A6
:1002B000DE65F468FC980010F8B5C0460448054BAC
:1002C00010B5834203D0044B002B00D0984710BDDB
:1002D000500F0020500F0020000000000648074982
:1002E000091A8B10C90FC91810B5491003D0044B57
:1002F000002B00D0984710BD500F0020500F002059
:100300000000000010B5074C2378002B09D1FFF73F
:10031000D5FF054B002B02D0044800E000BF0123AD
:10032000237010BD5812002000000000605400101F
:10033000054B10B5002B03D00449054800E000BF71
:10034000FFF7CCFF10BDC046000000005C1200208B
:100350006054001070B5D02480252406AD04192007
:1003600000F070FB65626561FA20656101F0F8FAE2
:10037000FA20A56101F0F4FAF6E7C04610B500F0E6
:1003800035FA012010BDC04600B58DB002F006FD63
:100390000D4804F095FE04F037FB0021022000F028
:1003A00027F901F0B5F806AB029300230193074B40
:1003B000074A0093002301F06DF90120002140421B
:1003C00003F078F9F9E7C046550300107D030010EB
:1003D00088130000180010B5012906D0032902D1A6
:1003E00000F070FA10BD0020FCE700F057FAF9E7C2
:1003F000180010B505290CD006D802290CD0042904
:1004000001D100F0ABFA10BD0629FCD100F0DEFAF4
:10041000F9E700F0C3FAF6E700F096FAF3E7C04612
:100420007047C0467047C0467047C0467047C046D8
:100430007047C04600487047F854001000487047A5
:100440000C550010004870479454001070B50028F7
:1004500026D0042831D81A4B8000C658300004F04A
:1004600075FFC0B2011C1F2815D8C9B2002821D0C1
:100470000023144DAA1CF05C0133DCB21080023260
:10048000A142F8D8C0230131C9B249009B001943E9
:100490002800298070BD1F21C9B20028E8D109E0D9
:1004A000084D074B02221968A81C02F00FFBC1215E
:1004B0008900EDE70449034DEAE70020EAE7C0467A
:1004C000200E0020E82300200203000010B50122C6
:1004D0000021002000F09EFA01220021012000F0FE
:1004E00099FA01220021022000F094FA0122002151
:1004F000032000F08FFA01220021042000F08AFA84
:1005000001220021052000F085FA012200210620A9
:1005100000F080FA01220021072000F07BFA01227E
:100520000021082000F076FA01220021092000F0C5
:1005300071FAD02301221B069A6201329A620232BA
:100540009A6204329A6208329A6210329A622032B7
:100550009A6240329A6280329A620132FF329A6223
:1005600010BDC046D020F0B557464E464546DE4643
:1005700000064368416899464368E0B59B46436876
:1005800047689C464668436845689A460223194076
:10059000013B98464B464246134019435A460423B2
:1005A0001A408A1863460821194052181021394010
:1005B0005218202131405346521840210B40D31885
:1005C00080222A409B1880224468520022409B18B7
:1005D00080224068920002409B18044A1360F0BCDD
:1005E000BB46B246A946A046F0BDC04684220020C4
:1005F000F0B5070089B003AC0391FFF767FFFFF781
:10060000B1FF6278A678E57823783B493B4C675484
:100610003B4963543B4962543B4966543B496554EA
:100620003B49096800290CDD12021A4323003604F5
:100630002D06324389002A4361189A6004338B42A5
:10064000FBD134480121606004F060FD3249206034
:10065000606804F079FD314B61689C4661444B1E33
:100660009941060006310B2000F0BCF901230093EC
:1006700021680B22606804F0CBFD80235B020493A9
:10068000F31CF2011B031343254A05201340059375
:10069000244B0793244B069301F068FF234902F093
:1006A000CDF802F08FF9071C02F0B4F985B20023EF
:1006B000002D0ED0280002F085F9011C381C02F034
:1006C00060F98721C90502F076F902F0A3F9C3B2F7
:1006D0001B022D043200216860681D4304AB0495A1
:1006E00004F0EEFD012320686268834011680B432B
:1006F000136009B0F0BDC04608100000741200205D
:10070000091000000A1000000B1000000C1000007F
:100710008422002000002050545700100000E0AF59
:10072000FFFFFF9F002C00200000067000127A00DF
:1007300030B50E4B0E4C83B00191E0540D4B0422AA
:10074000E01801A902F0C2F90B4B1D68002D0ADD6B
:10075000AD00651920000422083001A9043402F01C
:10076000B5F9AC42F6D103B030BDC0460810000068
:10077000741200200910000084220020054B82B072
:100780001B680191984203DA034B02308000C1508C
:1007900002B070478422002074120020F0B583B0AC
:1007A0000192104A01AB1468A04219DA884217DCA2
:1007B0005D789A781E782D0212042E43DF78164356
:1007C00001E084420CD003041B0C9C4205DD064D65
:1007D00002333A069B003243EA5001308842F0DD92
:1007E00003B0F0BD8422002074120020F0B5234B2A
:1007F000234CE35C022B1DD0224B1D68002D18DD1D
:1008000026680121330010339940AD000436626838
:100810006519B600607A237A00061B041843A37A90
:100820001B02184353681942FCD10434B050A5424E
:10083000F0D1F0BD134B144F1D683B789C46002D42
:1008400017DD6246114BA8009A5C114B2018E65C3C
:10085000104B5643E15C104B5143E35C360A5A435C
:100860002300090A120A1E7259729A7204339842BE
:10087000F9D1634601333B70C0E7C0460810000061
:100880007412002084220020082C002054560010EE
:10089000091000000A1000000B10000070B586B0AF
:1008A00069460A00064B70CB70C230CB30C21B8841
:1008B0001380162202F00AF9162006B070BDC04659
:1008C00064570010F0B5C646002300B51A4F88B033
:1008D0003D8801AC69009846E3764919174B8900B9
:1008E00059186B4606000C22981D02F0EFF81223EF
:1008F000134A6B441A8042465A80162301216B44E6
:100900001980414601225980FF236276A276210098
:100910001C223000A375E3752376258002F0D6F8FB
:10092000084B9D4201D80135ADB21C203D8008B076
:1009300080BCB846F0BDC046002C00207C5700109B
:1009400088130000FE030000437802781B02134363
:10095000014A13807047C046002C0020037870B510
:100960000500002B19D000246200AA18231DD0789E
:100970009B00EB1891780002DA78084399781E7989
:1009800012020A4359793604324309061143FFF72C
:10099000F5FE2B780134A342E6DC70BD030070B590
:1009A0000179C27809021143427880789C7900026B
:1009B00010435A79DD79240214431A7A2D042C430A
:1009C00012062243FFF7EAFE70BDC04600B500786C
:1009D00083B0002800D002200021FFF7A9FE03B059
:1009E00000BDC046094A830094464022634410B5C6
:1009F0001C68C0006240C02414408022520113438E
:100A00001C60034B9C466044416010BD04C0014023
:100A1000004001400A4B80009C46042360440029AA
:100A200001D00C230821002A00D10B00026853409A
:100A30000C221A4080235B01184302607047C046B5
:100A400004C001400123D0228340120693629361C7
:100A5000094A83009446402263441968C0004A4012
:100A6000C02111408022520113431960034B9C4660
:100A7000052360444360704704C0014000400140CA
:100A8000024B18688007C00F7047C04600C0064080
:100A9000EFF3108072B6034A1368002BFCD0BFF34B
:100AA0005F8F70472C0100D0BFF35F8F0022024B95
:100AB0001A6080F3108870472C0100D070B5EFF3F6
:100AC000108C72B60D4D2B68002BFCD0BFF35F8FDE
:100AD0000724CB08C618C05C01230C40A3401C00AF
:100AE0000440034207D103433370BFF35F8F2C6090
:100AF0008CF3108870BD100001F028FE2C0100D08E
:100B0000F8B54746CE46884680B5EFF3108C72B6EE
:100B1000214D2C68002CFCD0BFF35F8F9A422CD85B
:100B2000D4080727055D061901241740BC402C4254
:100B30001FD007210127894609E0D408055D061961
:100B40004C4639001440A1400C00294211D001321A
:100B50009342F2D201204042BFF35F8F00220E4B3E
:100B60001A608CF3108800280FDBC0BCB946B04671
:100B7000F8BD2C4310003470EEE7BFF35F8F002305
:100B80002B608CF31088012040424346002BECD0B0
:100B9000089801F0DBFDC0462C0100D00021044B79
:100BA000044ABFF35F8F02C39342FAD17047C04635
:100BB000000100D0800100D0044A1078431CDBB251
:100BC000172B00D9102313707047C046340E002035
:100BD00000B5054B83B00100009318221F23034882
:100BE000FFF78EFF03B000BD7C8700104027002078
:100BF00001238340002904D0034A1360034A136091
:100C00007047034A1360FBE780E200E000E100E088
:100C100080E100E001228240034B1B6813405A1E12
:100C20009341D8B27047C04600E100E0024B10305B
:100C30009B688000C058704700ED00E070B50D0063
:100C4000EFF3108672B60F4A1368002BFCD0BFF387
:100C50005F8F0D4B10309B6884001B590B4A9342E9
:100C600003D09D4201D001F089FD074B9B681D51C7
:100C7000BFF35F8FBFF35F8F0022024B1A6086F3D2
:100C8000108870BD240100D000ED00E0CD010010FF
:100C9000F0B557464E46DE464546E0B585B00600FF
:100CA00002911700EFF3108B72B6674A1368002B9E
:100CB000FCD0BFF35F8F0025644B5D579A46002D33
:100CC00000DAA4E06B00624C03935B199B0098462A
:100CD000A146C1444B4652469B79103613705D4B7A
:100CE000B2009B68019299580B1B2F2B34D95A4B99
:100CF000994200D0A4E0039B584A9C46584B654457
:100D0000AD006353434602336519E418554B012186
:100D1000043B1B1B1B055B0D13436B80524BEF7198
:100D2000AB80FF23AB71029BAB604B460B431900BA
:100D3000484B019A9B689950BFF35F8FBFF35F8F59
:100D40000022414B1A608BF3108805B0F0BCBB4603
:100D5000B246A946A046F0BD01200A008243D379DD
:100D6000BB422FD845464E46130040491B1B5B41F2
:100D70005943090D3A4B63533A4B02356519043B0D
:100D80005B1B1B05354D5B0D2B4373800426B4465E
:100D9000E0444444131F1B1B4C46A17102991B05E0
:100DA000A16049465B0D2B43A380314BE7710143A2
:100DB0001360BDE75800C01880002018C679BE42F5
:100DC0002BD902000623D356002BF3DA101D8246DE
:100DD0002848804604267642B446E14450464E46B2
:100DE000361A3005400D824656461C48957106431A
:100DF0009680039A944665441D4AAD0064192260AA
:100E00004246A371029BA280E771A36090E701F0C4
:100E1000B5FC002553465D5754E7101D8246908867
:100E20004005001584464046D444664604302018E8
:100E3000301AE0260005400D360230438046C9E7EF
:100E400001F09CFC57E7C046240100D0072C00208D
:100E5000380E002000ED00E0CD01001000E0FFFFA3
:100E600000A1FFFF680E002001BDFFFFAAAA00003D
:100E70000148804701BD0000F0B5DE4657464E46AA
:100E80004546E0B50C0083B0EFF3108972B6584ABE
:100E90001368002BFCD0BFF35F8F564B9A6803009A
:100EA00010339F00D559544A9046954232D0A542FE
:100EB00043D0524EAA1B2F2A2CD8012282409246A0
:100EC00051464F4A12681140019151464D4A1160F6
:100ED000BFF35F8FEFF305829346002A33D10123DE
:100EE0002A009A4393689C4208D177E04B005B1834
:100EF0009B00F3189968A1422AD01A000621515686
:100F00000029F3DA019B002B19D052463E4B1A60A0
:100F10003B4B1A60374B9B68DD51BFF35F8FBFF3CC
:100F20005F8F0022324B1A6089F3108803B0F0BC47
:100F3000BB46B246A946A046F0BD1500EAE75246B8
:100F4000304B1A60E6E79342C9D001F017FCC6E7C0
:100F500006215956002921DB4A0050188000341818
:100F60008046A0689860E079D87106202056987174
:100F7000002824DBA488F01A6405241544440019D1
:100F8000E0240005400D24022043988052181F4B96
:100F90009200B6181A781970B271B3E75946002951
:100FA0000FD1FF3191711A49918018490A789A71CD
:100FB000184A9B1B5B415A43120D0A70A2E7164860
:100FC000E3E7164A1649D21A083A5002400D014387
:100FD0009980144952080A43DA8093E70621515652
:100FE00013000029B8DA5A46002AEAD14546DCE760
:100FF000240100D000ED00E0CD010010380E0020EB
:1010000000E100E080E100E080E200E0072C002049
:1010100001BDFFFFAAAA000001BD0000720E002062
:1010200000F0FFFF00F8FFFF70B5EFF3058101242A
:101030000443EFF3108C72B6214A1368002BFCD0E6
:10104000BFF35F8F1F4B05001F4AED1A6D416A43C6
:10105000120D1E4D8900AE6852B27658A6421CD0C1
:101060000621595691421CD012215956914222D044
:101070001E215956914220D02A21595603249142CB
:1010800010D0134B19781A708171BFF35F8F002253
:101090000B4B1A608CF3108870BDAB680D4C5C5024
:1010A000EFE700246100091989005B18FF2199719D
:1010B00009499980E5E70124F4E70224F2E7C046F4
:1010C000240100D0380E0020AAAA000000ED00E0A4
:1010D000072C0020CD01001001BDFFFF054B064A83
:1010E0001360064A136053609360D36013615361C9
:1010F000936170478080808000E400E004E400E0B9
:10110000024B9C46614489000160704740000034F6
:1011100010B50400FFF750FD01002000FFF7F0FFBD
:10112000FF232371BFF35F8F10BDC04610B50400CD
:10113000FFF742FD01002000FFF7E2FFFF23A3803D
:10114000BFF35F8F10BDC04610B504000120FFF74C
:101150003FFD044B9C46604480002060BFF35F8FDE
:1011600010BDC0464000003483680B4810B584466B
:1011700061446244090112019A18591854684B6875
:1011800001209C4201D802D00020C0B210BD1268DC
:101190000B689A42F9D8F7E7FFFFFF0F10B5080078
:1011A0000B690C009847002802D02068616810BDC8
:1011B000E06000210020FAE70A4B1968EFF3108085
:1011C00072B60A68002AFCD0BFF35F8F1B68BFF3BA
:1011D0005F8F00221A6080F3108840BF002000213A
:1011E0007047C046DC2B0020F8B557464E464546B2
:1011F000DE46E0B599460CAB1C780DAB1B780600BB
:1012000090469A460768002C11D1BC7B002C42D036
:1012100065003B682D19033D59194B78BB73002BB2
:1012200000D1FB7300238B704B700B7004E06500E2
:101230003B682D19033D5919B2682A4B9446424622
:10124000E3181B0163441A604A465A600A9A9A607E
:101250000B9ADA6000238B704B700B707B7B9B4684
:10126000002B2BD022005946B8687B6898473A6813
:10127000002816D05B4658465B005B445519033B7B
:10128000A870D118D35C002B00D06B705B460C703B
:101290007B73A34513D0F0BCBB46B246A946A0461B
:1012A000F8BD5B465B005B44033BD3189C7051194F
:1012B000525D002A00D05A705B460B707C73424628
:1012C0004B46307D00F0C4FC051E06D05346002B73
:1012D00003D12100306800F0DFFE0E9B002BDAD036
:1012E0001D70D8E7FFFFFF0FF0B5DE4657464E46AC
:1012F00045460023E0B58BB00893674B8200D45875
:1013000000239B46099000F019FC626806000F005C
:10131000EFF3108572B61368002BFCD0BFF35F8F1C
:1013200023689C465B7B9946002B00D169E0A2684C
:101330005A4B90464B441B01984443461A685B68DD
:1013400010001900801BB941002900DC63E00998F6
:1013500000F07EFC002300229846002306920793AB
:1013600000239A466368BFF35F8F5A461A6085F37D
:1013700010885346002B08D10028C4D10BB0F0BC14
:10138000BB46B246A946A046F0BD089B414618029E
:101390004B461843D047626806000F00EFF31085F4
:1013A00072B61368002BFCD0BFF35F8F002F50DBA9
:1013B00033003B4302D02369002B61D12368D97BE2
:1013C000002907D04A00521819688C4649466244E1
:1013D000033A51709A7B002A01D14A469A734A46D1
:1013E000DA734B46E168013BCA5C0132CA545B4682
:1013F00023616368BFF35F8F5A461A6085F31088D4
:1014000081E70023002298460023069207930023D9
:1014100000209A46A6E7002902D1002800D096E7CE
:101420000021604600F0B6FD43461A685B680692EC
:10143000079343469B689A464346DB689846E368B1
:101440004B44013B1B7808931B020343236100209C
:1014500088E72369002BB1D0069A079B921BBB41FA
:10146000002B15DB59460491012103914946029155
:1014700041460191514620000091FFF7B5FEB6E7C5
:1014800000F05CFB32003B0012184B41002BE9DA04
:101490000122034B5242E5E7C02B0020FFFFFF0F64
:1014A000FFFFFF7F10B5144C6368002B04D00A21A6
:1014B0001248FFF725FE10BD2300114A10212068B5
:1014C00000F082FC032000F02DFB032000F02AFC3A
:1014D00003200C4900F076FBFFF76EFB0A4B9C469D
:1014E00003232375D0231B061B6860446375074BD9
:1014F00080006060DC60DAE7800E0020DC2B0020DA
:1015000069110010E912001040000034C02B0020C7
:1015100000487047800E0020F0B54E464546DE4636
:101520005746E0B585B0019310AB1B7806000393D6
:1015300000239946984600927268EFF3108B72B6BA
:101540001368002BFCD0BFF35F8F3568AC7B002C99
:101550003DD067002B683F19033FDB195A78AA7307
:10156000002A00D1EA73B168474A8C460098019975
:10157000A21812016244106051600E9991600F9997
:10158000D16042469A705A701A706B7B9A46002B53
:1015900067D022001900A8686B6898472A6800285D
:1015A00052D0534650465B005344D719033BB870A2
:1015B000D118D35C002B00D07B7053460C706B733A
:1015C00054454FD0F3681B19013B187800E0002008
:1015D0007368BFF35F8F42461A608BF31088002C4C
:1015E0004FD04B46002B08D10002204305B0F0BC81
:1015F000BB46B246A946A046F0BD039B002B3ED099
:101600000E9B00200F999847030004000D000B4328
:1016100035D000290ADA009A019B121BAB410092D7
:101620000193002B0ADB039B994685E700F086FABD
:1016300024184D4100940195002DF4DA0123134C38
:101640005B4200930194EEE753465B005344033B37
:10165000D3189C70D119D25D002A00D05A7053461D
:101660000B706C73307D009A019B00F0F1FA81469B
:101670000028A7D02100306800F00EFDA2E700206E
:10168000B4E701204042B1E7FFFFFF0FFFFFFF7FFC
:10169000407D7047F0B54E464546DE465746E0B5BC
:1016A00085B01099804689461100194300D1D8E0D1
:1016B000D81706005640340006005E400100350091
:1016C000241A8D41494640460A6088600F9A0E9858
:1016D0004B6008614A6100F031FA001969410090DD
:1016E0000191002900DACAE0002300259A4643460A
:1016F0005A68EFF3108B72B61368002BFCD0BFF35F
:101700005F8F43461E68B47B002C00D189E06300E4
:101710001B19033B1A0094460393336802946344F5
:101720005A78B273002A00D1F27341468968584A48
:101730008C4600980199A218120162441060516011
:10174000544991604946D16052469A705A701A7055
:10175000777B002F00D174E022003900B0687368F5
:1017600098473268002861D003997B00DB19511833
:10177000033B8F70D018D35C002B00D079E004704D
:1017800077732E00BC425DD04346DB681B19013BDA
:101790001B7842465268BFF35F8F514611608BF34E
:1017A0001088002C67D0002E0DD1029A1B02134323
:1017B00001364A463000D36005B0F0BCBB46B246A5
:1017C000A946A046F0BD4846036998470500031E98
:1017D00001D10023EDE74A461668576832003A43C4
:1017E00053D0002F0EDA009B019C9B1BBC41009341
:1017F0000194002C00DB7AE70123274C5B42009325
:10180000019474E700F09AF936184F410096019759
:10181000002F00DB6BE701231F4C5B420093019418
:1018200065E700222E0000230292B2E77B00DB195D
:10183000033B0398D3189C701118125C002A15D131
:101840000F7074734346187D009A019B00F000FAF4
:10185000061E00D198E743462100186800F01CFCE2
:1018600092E701240025012200232BE75A700F7014
:10187000E7E74B7083E7012300265B4299E70123EA
:10188000054C5B42009301942EE71E00002390E775
:10189000FFFFFF0F9D110010FFFFFF7FF0B5040059
:1018A0000D0006267642F717C64636196F4100B579
:1018B00084B08F4214D811D000F040F932003B00C0
:1018C000121A8B41002B15DC002B3ED02000290082
:1018D00000F068F904B080BCB846F0BD8642EBD990
:1018E0000026002700F02AF932003B00121A8B4133
:1018F000002BE9DD002302930193154B3200009386
:1019000014483B00FFF708FE0028DFDB0023984661
:10191000BC46114A114F7B6A9C4504D8B96A8E4275
:10192000D4D99C45D2D11168EFF3108072B60B6800
:10193000002BFCD0BFF35F8F1368BFF35F8F41466E
:10194000196080F3108820BFE5E7002ABED0D1E7F8
:10195000B9110010800E0020DC2B00200040054053
:1019600070B5060000F0EAF8FA2204000D0000232A
:1019700030000021920000F0E7FF001969410029C2
:1019800002DBFFF78BFF70BD012001494042F8E701
:10199000FFFFFF7FF0B5EFF30583CE46474680B5E6
:1019A00005000C0085B0002B12D02C4A0020536A91
:1019B0009C4203D8926A0130AA4204D305B0C0BC4D
:1019C000B946B046F0BDE01A421E9041C0B2F5E7FC
:1019D000234E02930193234B0200009330000B002F
:1019E000FFF79AFD031EE0DD20BF7168EFF310875B
:1019F00072B60A68002AFCD0BFF35F8FDAB2944651
:101A00003068427B62451DD0FF221A405100894652
:101A10000168914488464946414403398978002940
:101A200013D0F1681B0A88464244013A1278DBB2AF
:101A30009A420FD07368BFF35F8F00221A6087F35A
:101A40001088B2E7FF221A40EBE732699342F1D1E6
:101A50003161EFE7614600F01FFBEBE70040054016
:101A6000800E0020B9110010F0B5EFF30582D646C4
:101A70004F4646461000C0B51038EFF3108872B6D6
:101A8000214C2368002BFCD0BFF35F8F012319008A
:101A900081401E4D1F006963AA461D4D29601D4DE2
:101AA0002E78AC463500C5402F402B4209D1BFF3FC
:101AB0005F8F276088F31088E0BCBA46B146A8461D
:101AC000F0BD5346144D5F6A83005D59AF420ED39B
:101AD000124A8E439B5862461670BFF35F8F0022F6
:101AE000226088F31088002BE6D09847E4E70C4B7F
:101AF00092009C46624413681360BFF35F8F00231B
:101B0000236088F31088D7E7280100D00040054003
:101B10003C700540092C0020E82B002020260020E6
:101B2000D03F054010B50100024A0348FEF7C6FF4A
:101B300010BDC04698870010052C0020034B596A41
:101B40000A00986A596A8A42FAD1704700400540F3
:101B500070B504000D00124A536A1900966A536A60
:101B60008B42FAD13000190024184D41AB4211D8F4
:101B70000ED02B000A494A6A9A42FCD307D1084A80
:101B800002E0516A994202D1916AA142F9D370BD33
:101B9000A642EED9012301246442E5175B42E9E73E
:101BA00000400540064A536A9942FCD807D1044BCD
:101BB00002E05A6A914202D19A6A8242F9D370478E
:101BC0000040054070B504000D00EFF3108672B6BA
:101BD0001A4A1368002BFCD0BFF35F8F002D1BD077
:101BE0002000FFF723F8164981420AD02000FFF7B2
:101BF00025F801212000FEF7FBFF0123A340114A35
:101C00001360114BA400E550BFF35F8F00220B4B14
:101C10001A6086F3108870BD0B4BA200D5500122CC
:101C2000A2400A4920000B7893430B700449FFF748
:101C300023F900212000FEF7DBFFE5E7280100D0B3
:101C4000691A00103860054020260020092C002069
:101C5000F0B54F46D6464646C0B507002C4C616AE3
:101C60000D00A66A616AA942FAD18B4208D805D054
:101C70000120E0BCBA46B146A846F0BDB242F7D951
:101C8000EFF3108A72B6234801680029FCD0BFF335
:101C90005F8F0125BD4020491D4C88460978894643
:101CA0002943C9B28C46414660460870391D1B481D
:101CB000890065630A51B9000B50216A002029424E
:101CC00019D0616A0800A66A616A8142FAD18B4222
:101CD00019D801D1B24216D8CC4516D00C4B1F20D2
:101CE0001D625D6301230740BB400D4A1E3813602F
:101CF00043464A461A70BFF35F8F0022054B1A60B5
:101D00008AF31088B5E70020F5E70120F3E7C04625
:101D100000400540280100D0092C0020E82B0020BD
:101D200080E200E0EFF3108C72B60A490B68002BDA
:101D3000FCD0BFF35F8F01238340074A074813623B
:101D400002789A430270BFF35F8F00230B608CF31D
:101D500010887047280100D000400540092C002061
:101D600070B5050014001600002915D00C00002ADB
:101D700012D080686B689847296800280ED07300DD
:101D80009B196200033B1219CB18033A9C70881808
:101D90008A5C002A15D10670200070BD63001B19F3
:101DA0007200033B9219CB18033A9E7088188A5C24
:101DB000002A02D104703400EEE75A700470340037
:101DC000EAE75A700670E7E730B583600023CCB2CB
:101DD00043730133047342608373C4730D0000685E
:101DE000012C06D9421C0133DBB2137003329C4232
:101DF000F9D1FF2129404B0059180023401803381E
:101E0000437030BDF8B5CE46474606000C0080B59D
:101E1000002907D04D0003686D18033D5A19577803
:101E2000002F04D12000C0BCB946B046F8BD7900EF
:101E3000C9190339884643445978894600215970A5
:101E4000517073683A002100806898473368002811
:101E500014D042469A18947059195B5D002B00D03B
:101E600053700F70270049463000FFF7CBFF390051
:101E700002003000FFF774FF0400D3E742464146FA
:101E80005D19AF709A185B5C002B00D06B701470FA
:101E9000E9E7C046F0B557464546DE464E46E0B552
:101EA0000D006B0001685B19DF1E0400C85D83B084
:101EB0000192CA19002850D043001B18033BCB18CD
:101EC0005E78B446002E1AD1019E002E42D0E67BE9
:101ED000002E04D073009B19CB18033B5D70A37BCD
:101EE000002B00D1A573E57300282FD10023537078
:101EF00003B0F0BCBB46B246A946A046F0BD720096
:101F00006244033A89184A78904600224A70914602
:101F10005A70010032002000FFF722FF434682463C
:101F2000002B07D05B0021684344033BCB185A7851
:101F3000002A16D1424651462000FFF711FF2168C2
:101F4000019BCA19002BC2D10028CFD043001B1817
:101F5000033BCB1800219970C8E7019B002BB6D139
:101F6000C4E750008018033809184878834648466B
:101F70004870587041462000FFF7F2FE59468046EF
:101F80002000FFF73FFF414602002000FFF7E8FE78
:101F90008046CFE7F0B557464546DE464E46E0B5AB
:101FA00083B00191457B04006B0000685B19DF1E64
:101FB000C15DC219002952D04B005B18033BC31806
:101FC0005E78B446002E1CD1019E002E44D0E67BE4
:101FD000002E04D073009B19C318033B5D70A37BD4
:101FE000002B00D1A573E573002931D1002328000F
:101FF0005370617303B0F0BCBB46B246A946A0461D
:10200000F0BD72006244033A801842789046002284
:10201000427091465A7020003200FFF7A1FE4346FD
:102020008246002B07D05B0021684344033BCB185A
:102030005A78002A17D1424651462000FFF790FEF9
:10204000019B01002068C219002BC0D10029CDD00E
:102050004B005B18033BC31800209870C6E7019B38
:10206000002BB4D1C2E75000801803380918487813
:10207000834648464870587041462000FFF770FE7E
:10208000594680462000FFF7BDFE41460200200071
:10209000FFF766FE8046CEE770B5040000292CD01D
:1020A000437B8B422ED0056848004018033828181F
:1020B0008278002A21D053009B18033BEA5CEE187B
:1020C0008A4202D11BE0002A08D053009B18033B30
:1020D000EB185A788A42F6D142785A7000230122CE
:1020E000837043702000FFF7D5FE617B0200200063
:1020F000FFF736FE6073012000E0002070BD4378DA
:102100003370EBE701221900FFF7C4FE6073012072
:10211000F4E7C046F8B5CE464746040080B5062031
:102120000E0000F023FA051E51D0524B5249E2181E
:1021300053425A418023DB039C4692054F4B624435
:102140001A604F4B1A6010008B689843FBD1494BC3
:102150008021E3185A4253414A4A5B004900995290
:10216000062000F003FA3100C00000F067FBC3094D
:1021700032D14022012190466162A362256BEB07B8
:1021800036D427008026E36A00232C3776013E43AD
:1021900033600620256300F0E9F94146800000F035
:1021A0004DFB236B05009846DB073BD46022E36AB6
:1021B0005A406E231340336043462363802310222A
:1021C0009B013B431A60304B23630323A364280025
:1021D000C0BCB946B046F8BD2C4A93423FD9002353
:1021E0002B492C4A6162A362256B9046EB07C8D548
:1021F0002200C02330329B011343234A06201A6079
:10220000666AA26AB601B61800F0B0F9224900F079
:1022100015FBB6020100300000F010FB0021FFF7B3
:1022200097FCAEE72200C02330329B011343164ACD
:1022300006201A60636AA26A9B019946914400F0E5
:1022400095F94B4614499B02994600F0F7FA0100B4
:10225000484600F0F3FA0021FFF77AFCA6E77F2258
:10226000990188461040013040081900804403005D
:1022700082E7C0460080FCBF00C0004000E0004094
:1022800000F00040F82B002001030000FEFF0000DA
:10229000FFFF0000C0FF3F004E0E000030B50C20D5
:1022A00083B000F0B9F9FEF7EBFB00280ED0994B94
:1022B000994A1A605A609A60DA601A615A619A61A2
:1022C000DA611A62954A5A6203B030BD944CA06735
:1022D00000F0AAF90122934B1A60636C012BFCD128
:1022E0000322914B1A608E4A936B012BFCD1013370
:1022F00001218E4A8E480093043300F03DF90523F6
:102300008C4A009301218C4800F036F98B4B5A68B7
:10231000FF2A02D8802252005A6080227D4C824BD4
:1023200021691201854D1A60002907D0606900F00B
:1023300085FA431C5800C0180338FDD2E0217F4BBA
:1023400002201A681140802252012A431160196844
:10235000484003210140116004219A681142FCD0D9
:102360008022802192012A430901116080225200BB
:102370005A60734B2361734B5968FF2900D85A6028
:102380000321684A6F4B116002399A681142FCD0F0
:10239000E0201A681040802252011A431060186829
:1023A0004840032101400220116066498A681042BA
:1023B000FCD0802292011343802212011A608022F5
:1023C000614B52004A606361604B5968FF2900D835
:1023D0005A6080225E4BE16912015C4D1A6000294F
:1023E00007D0606900F02AFA431C5800C01803386F
:1023F000FDD2E02255490B681A4080235B012B4334
:102400001A60802380229B012B4312011A608022D4
:10241000414B52004A60E3614E4B5968FF2900D896
:102420005A6080224C4B216A12014A4D1A600029E1
:1024300007D0606900F002FA431C5800C018033846
:10244000FDD2E02243490B681A4080235B012B43F5
:102450001A60802380229B012B4312011A60802383
:1024600080225B004B602C4BD20223623B4B5968AD
:10247000914200D25A608022394B616A1201374D75
:102480001A60002907D0606900F0D8F9431C580091
:10249000C0180338FDD2E02230490B681A4080236F
:1024A0005B012B431A60802380229B012B43120186
:1024B0001A608023DB024B60184B6362294B5A6819
:1024C000FF2A02D8802252005A608022264BA1693E
:1024D0001201244D1A60002907D0606900F0AEF99E
:1024E000431C5800C0180338FDD2E0221D490B6878
:1024F0001A4080235B012B431A60802380229B01BA
:102500002B4312011A6080235B004B600E4BA361CA
:10251000DAE6C04644270020006CDC021BB700004E
:10252000008000403CB0004030B00040002F6859AF
:1025300000800240008C864700C00240308000408E
:10254000001BB7003C800040405973075480004096
:1025500054B000406080004060B000406C8000409B
:102560006CB000404880004048B00040014B800003
:10257000C058704744270020F8B5040021481D00CA
:1025800017000E0000F05AF90100380000F056F96B
:10259000069B29041B0319432368002B20DB1A4BDD
:1025A0001A4DE21853425A4180235B019C461203A4
:1025B000174B62441A60174B1A601700AB689F43B1
:1025C000FBD1C022231D92011A4321232660A06063
:1025D00013602368002BFCDA0823E1601360F8BD68
:1025E0003F2322681340B342D9D1A3681B051B0DBA
:1025F0008342D4D1EE22E368D20213408B42CED183
:10260000EDE7C046001BB7000040FDBF00C0004022
:1026100000E0004000F000408023024A9B0003439A
:10262000D362704700800540AA23064A1B0113604D
:102630002F230549D360054B19605368002BFCDA42
:102640007047C0460040024000B0FA0000600240FF
:102650002C4B2D4A70B51A602C4A2D4B2D491A600F
:1026600014008B689C43FBD12B4D2C4EB54208D2F5
:10267000013E761BB60808CD984723000134B342CB
:10268000F9D1FFF70BFE264A214B1A60214A9368C5
:10269000DB43DB01DD09002BF9D14022214B224C29
:1026A000224E9A675A671A67DA66B44208D22368DC
:1026B0002000002B20D00834FEF738FDB442F6D3BA
:1026C0001B4E1C4CC022A168300000F0FFF9A66030
:1026D000FEF764FAFEF702FDFEF7E4FE164C174E15
:1026E000B44208D2013E361BB60808CC98472B00EE
:1026F00001359E42F9D170BD0834FEF709FDB442A0
:10270000D5D3DDE700E00040BFCDFBFEFE7F3C00FF
:1027100000F0004000C00040380F0020480F0020AB
:10272000FFFFFF0100F00140280F0020380F0020BC
:102730000000002000ED00E0480F0020500F0020B6
:1027400000BEFDE710B5FFF7FBFFC0460FB400B5B4
:10275000084883B000F0ECFA049B002B07D005A9D1
:102760001800019100F018F8034800F0E1FA012088
:10277000FFF7E6FFBC870010CC87001010B50148BA
:10278000FFF7E4FFD087001010B5002800D110BD7E
:1027900000F082FAFBE7C04610B5094A030014684E
:1027A00084B0002C08D0012200910648524203A9AF
:1027B000A047012004B010BD00F0BAFA0020F9E7EC
:1027C000B82B00208927001001480421014B18472D
:1027D000B00E0020F9270010142310B5010018884E
:1027E00004331B88984710BD162310B501001888C4
:1027F00002331B88984710BDF8B54746CE4680B5D2
:102800000F1E19D014239946043304000025012615
:1028100098464B461888434621681B88984701C450
:10282000431E9841013540420640AF42F1D130008D
:10283000C0BCB946B046F8BD0126F8E7114A936F0F
:102840009B0813D210665166002905D0FFE7FFE709
:10285000FFE7516F106F704704B5002801D00020CA
:10286000C04302F0B5FD002104BDC046F0B5146EB2
:10287000556E576F166FFFF7E5FF1466556657677D
:102880001667F0BD000000D0132370B51D78012D30
:1028900015D010DD1C48FFF7A7FF1C4C010080225B
:1028A000200000F013F9022D06D01948FFF794FF1D
:1028B000184B186070BD154C174BA364F5E7164B09
:1028C000124C23606360A360E36023616361A361D2
:1028D000E36123626362A362E36223636363A363CE
:1028E000E36323646364A364E36423656365A365AE
:1028F000E36523666366A366E36623676367A3678E
:10290000E367A364D1E7C046534400005810002099
:102910004C330000D82B00201D29001007B560465D
:1029200001880A0A0230DF2AFAD1C9B2820804D328
:10293000028840880004104300E00068014A5050BB
:10294000039007BD5810002051434343C9188C46DB
:10295000110C83B24B4310B4040C614392B280B2A9
:10296000504362431C041B0C001910BC5941130452
:10297000120CC0185141614470470000484041406A
:1029800048400E4B5B6818470C4B1B6818470C4AB5
:10299000936F9B0802D2094BDB681847F0B5146EA1
:1029A000556E576F166FFFF7F6FF054A14665566AA
:1029B00057671667F0BD014B9B68184758110020F8
:1029C000000000D0491A002808D1084670470000CE
:1029D000C10FC90700D54042002817D0F44603B400
:1029E0000B4B1B68984706BC81409E3840428031A3
:1029F00007D20B0607D04900490AC0051043084317
:102A000060470130F8E7490A8902F5E7704700009E
:102A1000D82B0020014B5B6A18470000581100209A
:102A2000132310B512481C78FFF7DEFE0100012CBD
:102A30000AD003DD80220F4800F048F80E48FFF767
:102A4000CBFE0E4B186010BD0A4C5422200000F043
:102A50003DF80B4B6365A365E36523666366A36678
:102A6000E36623676367A367E3672362E361E5E7E0
:102A700053460000581100204C330000D82B002092
:102A8000852A001007B5604601880A0A0230DF2A4D
:102A9000FAD1C9B2820804D30288408800041043E6
:102AA00000E00068014A5050039007BD5811002013
:102AB00001480421014B1847C00E0020F9270010DF
:102AC000014B1B6818470000C00E0020014B5B68DB
:102AD00018470000C00E0020030010B508001100C8
:102AE0001B68984710BDC046F0B546464F46D646CF
:102AF000C0B5437D80460E001700002B46D0002A4B
:102B00003FDD4B1E9946244B0125002400209A46A8
:102B10000DE04B461B5D0D3B5A425341325DDBB22B
:102B20000A2A0BD02B00013401359F421ADD002CFC
:102B3000EFD14346325D1B7D0A2AF3D1002BF1D140
:102B4000A04204DA4346211A1B68301898474346CE
:102B500050461B6802219847013428002B0001359C
:102B60009F42E4DC874204DD4346391A1B68301873
:102B70009847F619013E33780D3B5A42534142467D
:102B80001375E0BCBA46B146A846F0BD0368110013
:102B900030009847F5E7C0463C880010F0B5DE46A7
:102BA00057464E464546E0B585B017001C00060066
:102BB0000D00FEF7C3FF0023304A12184B41002BD3
:102BC00058DB2F4908008A4602F01AFC01906B1C62
:102BD00003D1300002F0BAFB0500002C25D1294BAF
:102BE0009846294B1C68002C15D0002F20D1274F68
:102BF00002E02469002C0ED02368002BF9D03B683A
:102C0000002B01D0A342F4D120002A003100C0479C
:102C10002469002CF0D1019B002B27D105B0F0BC1A
:102C2000BB46B246A946A046F0BD194B9846D8E728
:102C3000164B994602ABDF1D0A239B4602E024692E
:102C4000002CE8D02368002BF9D04B461B68002BE2
:102C500001D0A342F3D12A0031002000C0475B46D7
:102C60000122390020003B70C047E8E7504602F0DF
:102C7000A7FBD3E70122074B5242A2E740420F00D5
:102C8000300F0020E92A0010AC270020B4270020D4
:102C9000D92A0010FFFFFF7FF0B5CE46474680B52A
:102CA00083B06B460600DD1D2870FEF747FF00234A
:102CB0001A4A12184B41002B2BDB19490800884691
:102CC00002F09EFB174B81461C68002C14D0164F57
:102CD00002E02469002C0FD02368002BF9D03B6858
:102CE000002B01D0A342F4D1200001222900FFF7DC
:102CF000FBFE2469002CEFD14B46002B05D13000A0
:102D000003B0C0BCB946B046F0BD404602F058FB27
:102D1000F5E70122054B5242CFE7C04640420F0083
:102D2000300F0020AC270020B4270020FFFFFF7FDA
:102D300070B5040002F00AFB002301000500012227
:102D40002000FFF72BFF084B1C68002C06D063689F
:102D5000002B05D098472469002CF8D1280070BDBD
:102D60002469002CF3D1F9E7AC2700200A4A136844
:102D7000002B05D10CE01A001B691032002B07D084
:102D80009842F8D1002902D10369136001617047AC
:102D90000029FCD01060FAE7AC27002010B500F045
:102DA000C7F800F0CBF9012010BDC046F0B50D1EEC
:102DB00015DD0E4B0D271A680D4B4519D3185942D6
:102DC0004B410C495B005E5E20210478A64207D08F
:102DD00093691942FCD101301460A842F5D1F0BDCD
:102DE00093691942FCD11760F2E7C046FC2B002022
:102DF0000080FCBFF82B002030B504000D1E26DD3E
:102E0000002010211B4B013C1A689369194219D10B
:102E1000013093691942FCD1136823548542F4D1DF
:102E2000154B1B68002B0CD050239363516B183B40
:102E300034320B401100802252010A4313600028F3
:102E400015D030BD0C4B1B68002BEDD1F7E70A4BBA
:102E50001B68002B0BD050223821064B1B689A634D
:102E60005A6B3433114080225201134319600320FE
:102E70004042E6E7FC2B002030270020064B10B52F
:102E80001B68002B06D00021044A12689163044A93
:102E90001068984710BDC04630270020FC2B00204A
:102EA000382700201D4BF0B51A68C64698461C4BC3
:102EB0000E00D31859424B411A4F14331C00050021
:102EC00000B53B68002807D0002B11D0164B3D60A1
:102ED0001E6080BCB846F0BD002BF7D09063002187
:102EE0002000FDF785FE20001049FDF7C5FFEDE746
:102EF00020000E49FDF7A2FE01212000FDF778FE1B
:102F00004346502238211B689A635A6B3433114070
:102F10008022520113431960D8E7C046FC2B0020E1
:102F20000080FCBF30270020382700207D2E0010B5
:102F30000C4B10B51B780C4B0C4C1B780C4B022126
:102F400000202360FDF74EFD02210120FDF74AFD20
:102F5000E12120684902FFF7DDF801210548FFF76C
:102F600005FF10BD608A0010648A0010FC2B002051
:102F700000400340D00E0020024B1860024B196045
:102F80007047C046342700203C27002070B504005D
:102F900000200E0001F02AF9002835D0002001F0B1
:102FA0003FF9002830D0FEF7C9FD0023184A121857
:102FB0004B41002B24DB174D280002F021FA00289A
:102FC00022D0002001F012F900280BD101200021AD
:102FD0000324404200F06EFB6442280002F0F0F946
:102FE000200070BD002001F01BF90028EED0210068
:102FF0003200002001F024F9041EEED1033CECE77E
:103000000122054B5242D6E703246442E8E7C0465A
:1030100040420F00E02B0020FFFFFF7FF8B5DE46A7
:10302000574680B505000C00FEF788FD0023364AA0
:1030300012184B41002B5ADB344908008A4602F033
:10304000DFF9002803D1C0BCBB46B246F8BD002062
:1030500001F0CCF800284ED00026002C43DD2C4B8C
:103060009B4614E0A919002001F060F90700012037
:103070000021404200F01EFB002001F01BF9FEF78A
:103080005DFD234BF61918605960B4422BDD00201A
:1030900001F068F9A71B0200B84200DD3A00002ADF
:1030A000E0D101200021404200F004FB002001F0AB
:1030B00001F9002001F09AF8002814D0002001F056
:1030C00051F90028E1D1FEF739FD5B460F001A687F
:1030D0005B68002184460F4812184B419F4202D87A
:1030E000D3D19445D1D9504602F06AF9ABE7012219
:1030F000094B5242A0E700200021054B186059609F
:10310000504602F05DF99EE740420F00E02B0020A0
:103110005010002020A10700FFFFFF7F054B10B5D6
:103120001868002804D0044B0022196800F0C0FE83
:1031300010BDC046342700203C270020D02310B506
:103140001B061C68FEF7E4F9FEF7A2FA0023A04272
:1031500001D0180010BD054B05481B78FDF7D8FFBE
:1031600001210448FFF702FE0123F2E7688A0010FC
:10317000E02B0020E80E002010B5024800F004F813
:1031800010BDC046D02B002030B5002589B004000A
:103190000922002101A80095FFF792FC09220021D5
:1031A00005A80495FFF78CFC4B236A46684613700C
:1031B00004A90D2202F0FCF8152108222000694420
:1031C000FFF784FC09B030BD10B501210520FDF7E3
:1031D0000FFD10BD10B500220021024800F05AF981
:1031E00010BDC046D82700208022024B5202DA646C
:1031F0007047C04600201150F0B5C64600B5060025
:1032000000F022F90C231B4DFF22AB6705201A4961
:10321000FDF73EFD40239846184C40220021200037
:10322000FFF74EFC43460127238321210023144A44
:103230006770A260136063545F31618441462187E7
:10324000053963540F4A10496360E260A1620B6064
:103250006362E26202F0ECF880239B052F64EB646A
:1032600090230A4A3000EA50FFF7BEFF80BCB84600
:10327000F0BDC04600001150B5040020B827002062
:1032800084001050000110508000105010D0010038
:103290000B785B0602D14B78052B00D070478A78FB
:1032A000014B1A60FAE7C04600001150F0B5C6465F
:1032B00000B54B790C791B0288782343CC787F21A9
:1032C000A4070140C509A20F4F001400324E7A191D
:1032D0005201B218907001206840507000205B05C8
:1032E0005B0DD0701383D4768046CA00012D33D095
:1032F0002A488446880162448446B4446046826019
:1033000040461060002933D0254AC90090466246E5
:10331000414451603F223F339343022C00D15B0074
:1033200020487A1901685201B218D1601E4ACB18A0
:10333000036051405340802288465201934228D86E
:103340004346A4061C4380237F197F011B06F61900
:103350001C4373681C6011E0144884468801624471
:103360008446B4446046826240461060002909D118
:1033700000236D01761973600D4BF360012080BC52
:10338000B846F0BD084AC9009046624641445162C1
:10339000C0E7FFF7F3F9D3E7B82700208400105007
:1033A00004001050BC2B0020000010508000105072
:1033B0000001105010B502F03BF810BD10B57F2091
:1033C0000C0020404000E409110000191A00034BD2
:1033D0004001C01800F05EF8012010BDB8270020A1
:1033E0007F22130010B50B400A420BD0C90980227E
:1033F000580040180649400140181201002102F00F
:103400001FF810BD02220348C909521A8266EEE76E
:10341000B8270020002011507F22100010B508406E
:103420000A4200D110BD0023C909400040180449D8
:103430004001081800220349C37002F001F8F1E7C7
:10344000B8270020FFF7FFFF80220D4B520410B574
:103450001A600C4B0C491A6010008B689843FBD122
:103460000A4C9C2200212000FFF72AFB8022002129
:1034700052010748FFF724FB0923636710BDC046CC
:1034800000E0004000F0004000C00040000011508B
:103490000000105070B5837E04000D001600002B54
:1034A00017D10023E38201332000A682A376256191
:1034B00001F096FF002804D080219023084A890259
:1034C000D150200001F0C4FF002805D0012323774C
:1034D00070BD01F0A5FFE4E7200001F099FFF7E7D8
:1034E00000201150F0B5C64600B5224E224A050014
:1034F00000243378002A2AD0204A214F9046A34244
:103500002ED8E31ADBB2012B02D980BCB846F0BD3D
:103510005A00D318DB00FB185B6828009847337803
:103520000134E4B25A1CA242E9DA164C53220021BB
:103530002000FFF7C5FA1022FF21E01CFFF7C0FAB8
:1035400020002022FF211330FFF7BAFADDE700F058
:1035500051FF280001F0F4F83378002BD5D1E4E7CF
:1035600042461268630094461B19DB006344002B3B
:10357000D2D1CAE7022C00200000000088220020DF
:103580008C890010FC240020024B5878431E98417F
:10359000C0B27047FC240020024B18784007C00FCF
:1035A0007047C046FC240020034B1878FF38431EA8
:1035B0009841C0B27047C046240F0020F8B5CE46EF
:1035C000474680B5314E040033780120FF2B03D0ED
:1035D000C0BCB946B046F8BD532200212C48FFF7C5
:1035E0006FFA2C4D2800FDF793FD2B4B1D602B4DE2
:1035F00028001430FDF7A8FD280001F0D3FC284B6B
:10360000284F1D60284B9846002B04D0380000E05E
:1036100000BF264B1860424600253B78002A20D088
:10362000234A9046214A9146AB4223D8EB1ADBB29B
:10363000012B01D90020CBE75A00D318DB0043440B
:103640001B6898473B780135EDB25A1CAA42EBDA69
:1036500020003470FFF7D0FD2000FFF7B5FD0120FA
:10366000B6E700F08FFE01F061F83B78002BEFD059
:103670000020ADE74A4612686B0094465B19DB00F8
:103680006344002BDCD10020A2E7C046240F0020B9
:10369000FC240020B424002050250020080F002026
:1036A00054250020022C0020000000008822002069
:1036B0008C890010F0B5DE4657464E464546E0B5CB
:1036C0008FB001F0A7F9002853D0C94BC94F9946D4
:1036D00018239A46053B9B46C74D0BACBB442E684E
:1036E0007269EFF3108172B61368002BFCD0BFF340
:1036F0005F8FB1613000210001F096FA7269B36901
:10370000BFF35F8F0021116083F31088002830D051
:103710006378082BE3D84A469B00D3589F466368DA
:10372000002BDCD0A0689847D9E77F222179B14BE4
:103730000A4056009B199846C80980444046012318
:103740003030C6789E43C670C67803339E43C67039
:10375000002A00D181E04346A84ADB7C002A06D03B
:10376000A74A1278934200D2CEE09B1ADBB2012B1B
:1037700068D90FB0F0BCBB46B246A946A046F0BD22
:1037800001223B78012013433B7033230421FA5C70
:103790008243FA54FA5C8A43FA540133FA5C824356
:1037A000FA54FA5C00208A43FA542378984600F0D1
:1037B0008BFC602223791A40602A0AD0402A52D01A
:1037C000DB06DB0E012B00D1A7E0022B65D0002B1E
:1037D00057D020780021FFF703FE80212078FFF7E3
:1037E000FFFD7CE7834B1B78DB0700D477E7854B35
:1037F000002B00D173E7FCF71BFE70E77D4B1A78B6
:10380000D20700D46BE7804A002A00D167E7187816
:103810000007C00FFCF70AFE61E72078FFF762FEA1
:1038200000F048FC794B002B00D158E700E000BFC6
:1038300055E72078FFF756FE00F03CFC22796D4BEF
:103840009A704CE75A00D218714BD2009B181E692F
:1038500062792078A368B04741E762792078A3684D
:1038600000F046FC3BE76B480028B2D000F02CFC8F
:10387000012140460CAA00E000BF002800D02EE73E
:10388000A7E7202A00D162E1002AA2D16379092B9F
:103890009FD8614A9B00D3589F467023217A0B42E0
:1038A00097D10F330B405B00F818CE090193534BAF
:1038B0008019C07C002B06D0514B1B78984200D257
:1038C00085E0C01AC0B2012860D9002A81D1002346
:1038D000029360790223020003909A43012A00D1E7
:1038E0004EE1002800D074E7019B0AAAFB189E193C
:1038F0003036F37802329B07DB0F138040460223F9
:103900000CA900F079FBEAE65A00D218434BD2002A
:103910001B689B18002B9AD12BE7237A0F2B00D919
:1039200057E7364AFB18DB78002A05D0344A12786C
:10393000934242D39B1ADBB2012B00D949E75E00C8
:10394000F318334EDB00F618F06800F0BDFB0121E0
:103950004046F3680CAA9847002800D0BFE66022D2
:10396000160023791E401A4200D032E763790A3BE1
:10397000012B00D92DE700F0A7FB63790A2B00D1BA
:103980004CE140460CA900F01FFBA8E643009C4612
:103990001F4B6044C0009C46030063440293002A0E
:1039A00097D0029EF3681800019300F08DFB01216F
:1039B0004046F3680CAA98475FE7184A5E00F31880
:1039C0001668DB00F618002E00D102E7BCE74300C2
:1039D0009C46124B60441B68C0009C460300634435
:1039E0000293002A00D174E7002BDAD1F1E6C04639
:1039F00000890010FC240020542500200000000055
:103A0000022C0020310400102D04001000000000E2
:103A10008C890010000000002489001088220020FA
:103A2000A37906931A007B789A4207D07B78002B03
:103A300000D065E1069B002B00D0F8E0069B4046D5
:103A40000CA97B7000F0C0FA49E67B780AAA023222
:103A50001370404601230CA900F0CEFA3FE6E0883F
:103A6000030AC0B20F2B00D9B3E6C3499A008A58A3
:103A700097460CA800F02EFB4046A179FFF7AAFB61
:103A800002223B7813433B7029E6E388012B00D0E8
:103A90009FE608223B78404693430CA93B7000F018
:103AA00093FA1CE6022039780AAB9A1C8B06890827
:103AB000DB0F01400B4320E7E388012B00D088E6B1
:103AC00008223B78404613430CA93B7000F07CFA77
:103AD00005E6AA4B002B00D17BE600E000BF021EEA
:103AE00000D176E6D37891781B020B4340460CA9AF
:103AF00000F082FAC1E6A24B002B00D169E600E09B
:103B000000BF021E00D164E6404613780CA900F005
:103B100073FAB2E62189FCF799FC021EF4D158E64B
:103B2000022B00D1F5E0974B002B00D151E600E0CD
:103B300000BF0200002A00D14BE6D3E7FCF77AFC75
:103B4000122302000CA9404600F056FA95E6237AAB
:103B50000F2B00D93DE68C4AFB18DB78002A05D0F4
:103B60008A4A127893422ED39B1ADBB2012B00D9DA
:103B70002FE65E00F318864EDB00F618F06814E7B7
:103B8000E288002A08D1012827D0019BFB189E1942
:103B90003036F3789B0734D5029E002E00D19EE587
:103BA000F3681800019300F08FFAF36801210CAA62
:103BB00040469847002000F087FA3423FB5CDB077F
:103BC00000D58CE5DDE6734A5E00F3181668DB006D
:103BD000F618002E00D1FCE5D0E7019BFB189E19DA
:103BE0003036F3789B07D7D56B4B1878FFF714FC6A
:103BF0000222F3789343F370F378039A9343F370BC
:103C0000CAE7654B1878FFF7EBFB0222F378134302
:103C10000122F370F3781343F370BDE70AAB9A1CEB
:103C2000404601230CA9167000F0E6F957E5581E2E
:103C3000C0B2FCF707FC002800D1CAE5437808931E
:103C4000022B00D0C5E501210600C2790936931187
:103C500052110B400A4012015B0113433A782F3195
:103C60008A4313433B70C37882781B021343C31803
:103C700007934346B0460493079B434500D8AEE004
:103C8000434601225B7803920B2B05D14346DB7838
:103C9000039343461B78984443465B78042B00D03B
:103CA00097E542460021079B01919B1A9BB2029324
:103CB000354A364B05911B788A4239D0019A9A428F
:103CC0002BD3D31ADBB2012B00D982E552465343E2
:103CD0002F4AD6184146029A0498B36898478446FA
:103CE000082802D9029A82423FD2019B0133D9B2FD
:103CF000264B01911B7805915A1C8A42DEDA68E551
:103D00004046FFF757FBBE784046FFF7EBFBBE701F
:103D100090E6FCF797FB02000CE71E4B56461B682B
:103D200056430993099B9C466644002ED2D150E528
:103D3000029E41463200049800F072FB8446082837
:103D400001D9864254D2029E41463200049800F0C6
:103D500001FD8446082800D83BE5864200D238E5BC
:103D600001230B4E019318360593039B012B41D081
:103D7000002240461EE0C0464C89001000000000B2
:103D8000000000000000000000000000022C0020E5
:103D90008C89001088220020240F00208378D318FB
:103DA000DBB2FB18D978FF2900D012E50199013266
:103DB000D970D2B2039B9A42F0D1664662468046E1
:103DC0000100019B584600F0A9FEB4460D4B059A30
:103DD0001B78E04401339A4200DC4DE7F9E4049B90
:103DE0009846094B002B00D128E6FCF71DFB25E681
:103DF000064EBAE7064BB2689A42B9D1089B0393C4
:103E0000B6E7C046022C0020290400108C8900105F
:103E100021440010F8B557464E46DE4645460C0094
:103E2000E0B516001F00002A3CD0702398461E4BB8
:103E300000259B461D4B9A461AE05B461B782000E6
:103E400099465346997800F02DFE00281CD0210099
:103E50004846FFF72BFA002816D0A378DA09012A82
:103E600019D00A9A013513702378E418B54219DA8B
:103E70006378052B08D1E3789B079B0FBB4203D1E6
:103E80004246A3781A42D8D00020F0BCBB46B246C6
:103E9000A946A046F8BD0B9A013513702378E418A3
:103EA000B542E5DB0120F0E7240F0020FC240020D0
:103EB000802310B51B0184B001930E4B02901C6847
:103EC00003916269EFF3108372B611680029FCD088
:103ED000BFF35F8FA361200001A900F06BFF62694F
:103EE000A369BFF35F8F0021116083F3108804B0D2
:103EF00010BDC04654250020702270B58B780C0090
:103F00001A4201D0002070BD064B20001D78064BE0
:103F1000997800F0C7FD0028F4D021002800FFF7B1
:103F2000C5F9F0E7240F0020FC240020074B08000F
:103F300019687F2310B50340C0095B00333018189F
:103F4000034B181800F06AFD10BDC0465025002034
:103F5000FC240020074B080019687F2310B503409C
:103F6000C0095B0033301818034B181800F07EFDB1
:103F700010BDC04650250020FC2400207F2070B5D5
:103F800008400F4C4000CD09241864193034E578FE
:103F90000020ED0700D570BD0126E57809483543BE
:103FA0000078E570FFF70AFA0028F4D10122E378DF
:103FB0009343E370E37803329343E370EBE7C04647
:103FC000FC240020240F002070B50A4E05003000AC
:103FD00008220C00FEF77AFD00237F21F36022788F
:103FE000B36091425B412800D90100220023FFF712
:103FF000C5FF70BDD4230020F8B5CE464746914694
:104000002A4E80B50822070030000D009846FEF7C2
:104010005DFD4B46B3600023F381EC79A97924025E
:104020000C43231C444500D943469AB29046B381C1
:10403000002C13D0002A1FD04B46002B34D0131C69
:10404000402A1FD89BB2984633787F2B20D8002176
:10405000174A43463800FFF791FF09E07F222B788B
:1040600038009A42644100230022E101FFF786FFF5
:10407000C0BCB946B046F8BD33787F2B11D980213A
:104080000022E6E740239BB2984633787F2BDED9A7
:10409000074C424649462000FEF718FD80212200C9
:1040A000D7E700210022D4E70020E1E7D423002055
:1040B000BC24002010B5142200210248FEF700FDA8
:1040C00010BDC046D4230020014B18617047C04684
:1040D000D423002010B5054C010008222000FEF773
:1040E000F5FC0023A360E36010BDC046D42300208C
:1040F000F8B53B4C1D0023780600DA09C9098A424D
:1041000013D00020002D00D0F8BD364B002B03D07B
:1041100021003000FFF7BCF82369002B44D02200B7
:104120000321300098470120EEE77F2B06D8A068D6
:10413000002837D02A002C49FEF7C8FCA368E28982
:1041400059195219E38892B2E281A160934214D0C6
:104150003F2D12D9A589A81A071C80B240282FD854
:104160002378BFB27F2B2DD80021AA4235D01E4A1A
:104170003B003000FFF702FFC6E72369002B05D0A4
:10418000220002213000984700280FD07F22002112
:10419000237830009A42494100230022C901FFF7E9
:1041A000EDFEB1E70020AFE70120ADE700213000D0
:1041B000FFF716F930008021FFF712F90120A3E77D
:1041C0004027CDE7AA4207D0074C3A002000FEF76F
:1041D0007DFC80212200CBE780210022C8E7C04679
:1041E000D423002091320010BC24002010B504001C
:1041F000FFF7CAF9002801D1002010BDFFF7CCF964
:104200000028F9D1A0000019C000044B0019C0001B
:104210001818037901201840EFE7C0468C220020CF
:10422000020083001B1810B5D8008018034BC00093
:104230001030C01800F0C4FC10BDC0468C22002015
:10424000F0B584002418E4002418E4002600C646D3
:10425000174F1036F61900B5300092B200F034FD59
:104260000500300000F0CAFC3F2803D8280080BCBD
:10427000B846F0BD3B190020D9789846FFF756FEA6
:104280000028F3D0300000F0B9FC3F2809D9220003
:104290004346C832D978D21940230020FFF76EFE7A
:1042A000E4E743460020D978FFF754FEDEE7C04636
:1042B0008C220020F8B50500FFF766F9002801D12F
:1042C0000020F8BDFFF768F90028F9D1AB005B19B1
:1042D000DC006419E4002500134E2435AD192800D4
:1042E00000F06EFC0028EBD037190020B978FFF7FA
:1042F0001DFE0028E4D00934FF34A4192100280051
:10430000402200F0E1FCB978051E08D0030022002D
:104310000020FFF733FE0028D2D02800D1E700208C
:10432000FFF718FECCE7C0468C22002070B5840051
:104330002418E40024180A4BE4002434E41805008F
:1043400092B2200000F07AFD0600200000F038FC58
:104350003F2801D8300070BD2800FFF7ABFFF9E718
:104360008C220020020083001B1810B5D800801892
:10437000034BC0002430C01800F040FC10BDC04604
:104380008C220020A42270B5184C82B0002120009D
:104390005200FEF795FBFF236371154B0025E38068
:1043A0000126082321002000268123734022383172
:1043B0000095073B103000F0CBFB00962100200059
:1043C0002600012340227831B836243000F0C0FBAB
:1043D0003000FCF79DFE26622600C0363000E56105
:1043E000FCF796FE2663656302B070BD8C22002048
:1043F00000C2FFFF10B5094C052200212000FEF786
:104400005FFB20002434103000F0CCFD200000F0D1
:10441000C9FD0121200000F0E5FD10BD8C22002027
:10442000F0B54B79060083B0022B02D18B79022BB9
:1044300003D00025280003B0F0BD2F4FBB78002B20
:10444000F7D18B7809253B700C780C196378242BF5
:104450000BD1082A02D80FE0AA420DD32378E41822
:10446000ED186378ADB2242BF6D0052B1FD0042BAA
:1044700002D163790A2B2DD0204C200000F0BEFB26
:104480003F28D7D92600103E0020F178FFF74EFDD7
:104490000028CFD0200000F0B1FB3F2815D9220022
:1044A0004023F178B8320020FFF768FDC2E7210011
:1044B0003000FFF721FD0028BBD0A3787B70237864
:1044C000ED18E4186378ADB2D1E7F1780020FFF77A
:1044D00041FDAFE70A4B2778019301330093022295
:1044E00002233000E119FFF795FC0028A1D00E351A
:1044F000ED19ADB2C0E7C0468C2200209C220020FE
:104500008E220020F8B560231400127805001340B5
:104510000020202B12D12F4A6379277916781B02AD
:104520003B439E420AD16378222B27D007D8202B09
:1045300017D0212B02D101293DD00120F8BD232B1A
:10454000FCD101293FD00329F7D1234B002BF4D014
:10455000E178A37809020020194300E000BF0120A0
:10456000ECE7012927D00329E7D11C4B002BE4D02D
:104570000020911D00E000BF0120DFE7012922D0CB
:104580000329DAD101252E00A378E4780239240228
:104590001C431471264024321000714000F022FDAB
:1045A0000F4B002BC9D06208002031002A40FBF7D6
:1045B00039FF0120C2E7072321002800094AFFF73D
:1045C0001BFD0120BAE721002800FFF7FDFC0120B8
:1045D000B4E7C0468C22002000000000000000006C
:1045E0002504001092220020F8B557464E46454655
:1045F000DE46E0B5484F8046FA780C001E008A423D
:1046000063D19AB210233D009B46C835BB442900B4
:10461000584600F013FC414BD946002B18D07B794B
:10462000D946FF2B14D0002E12D0AA19924603E0CF
:10463000013555450CD07B792A789A42F8D1484605
:1046400000F0D4FA0028F3D1797900E000BFEFE759
:10465000334B002B04D0484600F0C8FA002851D054
:10466000484600F0CBFA3F2834D84A46103A9378AF
:10467000A34207D001242000F0BCBB46B246A946A5
:10468000A046F8BD274B002B02D0002000E000BF61
:104690000020FFF70FFE0028ECD1234D280000F08A
:1046A0008FFA0028E6D1002EE4D0B306E2D1243DF3
:1046B0004046A978FFF73AFC041EDBD00023002215
:1046C0004046A978FFF75AFCD5E7BB788B42D9D092
:1046D0000024D0E74D46103D0020E978FFF726FC86
:1046E000002801D1AB78C3E7484600F087FA3F289D
:1046F0000BD94A4640230020E978B832FFF73EFC48
:10470000AB78B5E7FEF70AFDAAE70020E978FFF7E6
:1047100021FCAB78ACE7C0468C22002000000000F2
:104720001D31001000000000B022002010B58C22C6
:1047300000210248FEF7C4F910BDC046282400201D
:1047400010B58C2200210248FEF7BAF910BDC04610
:1047500028240020F0B54B7906000D0083B0032B10
:104760000AD10879C400241A1234A4B2944203D89E
:104770001B4F7B78002B03D00024200003B0F0BD3A
:10478000097869184B78212BF6D18823F9500B78DA
:104790000200C9187B1C0193BB1C0093300003234B
:1047A000FFF738FB0028E7D0AB79012B14D00123A9
:1047B0003B71AB783B708823FA58137AD1791B028E
:1047C0000B43B978FB800029D7D03A004023300052
:1047D0004832FFF7D3FBD0E7EB79FB70E7E7C04641
:1047E000282400201F23F0B514001278050083B0A0
:1047F0001340012B17D1614E20793378984212D1A2
:10480000602318001040134208D020280BD1637891
:104810000B2B08D85A4A9B00D3589F4601290DD12B
:104820006378062B0CD0002003B0F0BD012905D120
:10483000012321002800534AFFF7DEFB0120F3E7A4
:10484000E378212B7ED0222BEDD10020FBF7F6FD63
:1048500021000200F3882800FFF7CEFB0120E3E7E8
:10486000012917D00329E9D1A178474B3171002BD9
:10487000E4D0002000E000BF0120D5E70129DDD110
:10488000E178424B7171002B04D0002000E000BFA2
:104890000028C8D021002800FFF796FB0120C3E7BD
:1048A00001295AD00329C9D1E079A379000218431C
:1048B000E278A178041C402800D94024344BA4B2EB
:1048C000002908D0012806D94820305C884202D14E
:1048D000013C304BA4B200200094FBF789FD01207D
:1048E000A2E70129AAD10123210028002A4AFFF7C3
:1048F00083FB012098E70129A0D1E379A0791B026D
:104900000343E278A178181C402B00D9402080B2E4
:10491000002930D0012B2ED9330001270138317204
:1049200080B2093300900020FBF754FD3F18BBB262
:10493000002B00D177E721002800184AFFF75CFB25
:10494000012071E76733F258002A00D16BE721009C
:1049500028001378FFF750FB66E7E379A2791B0282
:104960001343402B00D95EE721002800084AFFF7D7
:1049700043FB012058E70027084BD3E728240020F9
:10498000BC8900102C240020000000000000000062
:1049900070240020712400202D24002030240020C9
:1049A00070B5164C0500A27882B08A420ED16178AB
:1049B000914210D1124A0124002A04D0002011494A
:1049C0009AB2FBF72DFD200002B070BD6278002482
:1049D0008A42F8D1EEE726009BB248360022002139
:1049E000002000933300FBF703FDA1784023320041
:1049F0002800FFF7C3FA0400E5E7C046282400209A
:104A0000210400103024002010B50020FEF7D6FD50
:104A100010BDC04610B5FEF7C7FD10BD037870B5D8
:104A2000DB0704000E00DD0F002B17D103785B07B6
:104A300001D5280070BD01213000494200F0D8FCAA
:104A40002378DB07DD0F002B0AD123785B0708D41E
:104A50000422237801251343237002E00025E8E7B0
:104A60000025300000F0ACFCE3E7C04670B50D0057
:104A7000012104004942280000F0BAFC23785B07BA
:104A8000DE0F002B04DB280000F09AFC300070BD24
:104A90002378DB0704D40422237893432370F2E7BE
:104AA0000026F0E710B5437904791B0223435B0528
:104AB0005A0DC3789B079B0F022B05D0032B15D0F3
:104AC0000020012B08D010BD02291CD0002040235B
:104AD00093424041C0B2F6E702394B4259410D4B77
:104AE0009C46614491424041C0B2ECE702394B42DE
:104AF0005941F023002049429B0019404031914226
:104B00004041C0B2DFE7044BD3185A425341D8B2F8
:104B1000D9E7C046FF03000000FEFFFF8A1870B50A
:104B2000914207D27F264C78052C04D00C780919C5
:104B30008A42F8D870BD34008D782C406400041986
:104B4000ED0963550C7809198A42ECD8F2E7C046A2
:104B5000F0B5C64600B5040006A805788020884652
:104B600017001E000002824227D8E068002803D008
:104B70000121494200F03CFC2069002803D00121BA
:104B8000494200F035FC4346236073045B0CED039F
:104B90001D430023E0686381A780E580238100280E
:104BA00001D000F00DFC20690124002801D000F0A4
:104BB00007FC200080BCB846F0BD0024F9E7C046E1
:104BC00010B5048941898288A3B288B28C4207D388
:104BD0001B1A9BB2101C9A4200D9181C80B210BD3F
:104BE0005100091A5B189BB2F4E7C0460300008924
:104BF0005B89C01A43425841C0B2704710B504895E
:104C000041898288A3B288B28C4207D31B1A9BB217
:104C100000209A4201D9D31A98B210BD5100091A46
:104C20005B189BB2F4E7C04670B5040000690E0043
:104C3000002803D00121494200F0DAFB2589608970
:104C4000A288A9B283B285422CD3CD1AADB2002D71
:104C50002ED0AA4208D2914231D38B1A9BB26381E3
:104C60009A4203D89B1A9BB29A42FBD9E2882168E8
:104C70005204520C53433000C918FDF727FF6189D5
:104C800001254B1C9BB2A288994214D900235200E3
:104C90009B1A9BB220696381002801D000F090FB31
:104CA000280070BD5500ED1A4D19ADB2002DD0D1C0
:104CB000002563899BB252009342EBDBE8E7891839
:104CC0008BB26381CCE7C046F0B546464F46D64628
:104CD000C0B50600006989469046002803D001212E
:104CE000494200F085FB31897289B5888BB294B254
:104CF000914257D31F1BBFB2002F4DD0BD4205D2EA
:104D0000AB4254D25B199CB22F0074814346B84524
:104D100040D89FB2A54203D8641BA4B2A542FBD9D8
:104D2000F288281B5204530C1900984633686143DB
:104D30009C4680B26144874226D94346584383B299
:104D40001A0048469A46FDF7C1FE434648467D1B79
:104D500064195C4331685044A2B2FDF7B7FE718913
:104D6000B588CB199BB26A00994217D99B1A9BB29E
:104D700030697381002801D000F022FB3800E0BCCC
:104D8000BA46B146A846F0BD424648467A43FDF7CA
:104D90009DFEE4E73B1CBCE773899BB26A0093422B
:104DA000E6DBE3E76F003F1BDF19BFB2A4E75B1B45
:104DB0009CB2A9E7F8B50400C0680E00002803D033
:104DC0000121494200F014FB258920896189A288CC
:104DD000ADB283B28FB2884228D3DB1B9BB29A421A
:104DE00009D8E779FF0906D1E068002801D000F072
:104DF000E7FA3800F8BD2B00954203D39B1A9BB20B
:104E00009342FBD2E28821685204520C5343C818E3
:104E10003100FDF75BFEA2886B1C9BB252009D42E5
:104E200009D99B1A9BB201272381DDE75100C91BD9
:104E30005B189BB2D3E79342F5DBF2E7F0B54E4641
:104E40004546DE465746E0B589460500140083B066
:104E5000002A6ED0C068002803D00121494200F02A
:104E6000C7FA2F89EA796B89BFB29BB2D20942D1C6
:104E7000AE889F4267D27200D31AFB189BB2002201
:104E800090469E4231D9F31A1A1C9BB2A34200D914
:104E9000221C93B29846E8884346FB189BB29B4677
:104EA0003C00B74203D3A41BA4B2B442FBD24004DB
:104EB000430C18009A462B6860439C46311B89B20C
:104EC000604441454ED35246434649465A43FDF756
:104ED000FDFDAB885B00BB4501D39B4503DB5A4618
:104EE000D31A9BB29B465B462B81E868002822D0F0
:104EF00000F066FA1FE0AA889046944226D29F42AC
:104F000044D34146FA1A92B2490012198A4209DB87
:104F100042469A1892B2171BBFB29346BB423AD987
:104F20007F1ABFB2E3199BB246469B46A046E8886B
:104F3000B6E700239846404603B0F0BCBB46B246F5
:104F4000A946A046F0BDFB1A9BB298E7E888A21AD2
:104F50004404640C54434246A144002AC5D046464A
:104F60001F0099E75346594389B20A000191494607
:104F7000FDF7ACFD43469A1B5346A2185A430199CC
:104F8000286892B24944FDF7A1FDA2E75100CA1A70
:104F9000BA1892B2B9E7B942C2DD4646E888A046DF
:104FA0007EE7C04610B50400C068002803D0012188
:104FB000494200F01DFA2069002803D0012149422E
:104FC00000F016FA0023E06863812381002801D0F5
:104FD00000F0F6F92069002801D000F0F1F9012075
:104FE00010BDC04670B50400C0680D00002803D095
:104FF0000121494200F0FCF92069002803D0012179
:10500000494200F0F5F97F21E379ED011940E068AC
:105010002943E171002801D000F0D2F9206900286D
:1050200001D000F0CDF9012070BDC04603BDC046DF
:1050300010B50400FCF752F8A04710BDF0B504000D
:1050400087B00F200E001700FBF7E4FD00210500DC
:105050000F20FBF7CDFD00230022009201930123D6
:105060000293D023049605940026002401210220F7
:1050700003971B06002C14D01A6D1042FCD05C65FF
:1050800040BF1A6D114203D120BF1A6D1142FBD0EF
:105090009A6DA2420AD000266C46B200A458E9E7F5
:1050A0009A6D1A6D1142FBD140BFE5E70136052E1E
:1050B000F2D929000F20FBF79BFD07B0F0BDC046D9
:1050C0000B4B0C4A10B5934201D201235B421900ED
:1050D000094A985004329B50084A094B0948CA5063
:1050E000094B9A68044B9C466144FFF7A7FF10BD2B
:1050F0000008042000000420F407000031500010D4
:10510000FC0700002D50001000ED00E00B4B10B527
:105110009C46604443425841094A840082B0009250
:1051200008482200E31CFBF7EBFC844202DC001B76
:1051300002B010BD01204042FAE7C0460000D0AFE7
:10514000EC890010062C0020F0B5D6464F464646A6
:105150008846C0B505240600FBF79AFC43461F7934
:105160001C57284B8146F01843425841264B9A461B
:1051700083009C4653466246985801222023BA4039
:10518000DB1B013A002C32DB9C422DDCA2401500D7
:10519000104229D1002F1AD043465A7819781202AA
:1051A000114342469B78D2781B040B4312061A43E4
:1051B0009046002241465300C95A4B0B00D10919B1
:1051C000131912339B00013299519742F2D853467A
:1051D000624605439D504846FBF766FC2000E0BC54
:1051E000BA46B146A846F0BD0848FDF7AFFA002B15
:1051F00002DAF9E7013BF7D315009D401C00054298
:10520000F8D1C7E70000D0AF18260020108A0010A0
:10521000F0B557464E464546DE468946E0B583B072
:105220000CA90D784946490088464944C9004618EA
:1052300037003400DC3701903868CC34834620686E
:10524000C02482460198CC318446A40161442143A4
:105250008024A4020C60691E8D411F216D420D4007
:1052600016498C466544052B0ED9A02149058C466C
:105270001F21D8366046540104430532053B3C608B
:105280000A403560052BF5D8414652019B06134371
:105290004944019AC90050180200DC32136003002F
:1052A000D8331D605B4613605346CC30036003B0B7
:1052B000F0BCBB46B246A946A046F0BD80E0000067
:1052C000F0B501258D400468AC434D0004606C18B6
:1052D000E40004192600C836002B28D01F68DC34EF
:1052E00037605F6877609F68DB68B76023606D1820
:1052F000EB001D008024D035451964012C43802526
:105300002D062560256001250F4C2E008C40846001
:105310000C1DA640802408318D401F21A4010443A8
:10532000C0180A40D830266025600260F0BD802792
:105330007F023760F8277F027760C027DC343F03A5
:10534000B7602360D3E7C0460101010110B58307B0
:105350000AD00300032102E001330B4205D01A7882
:10536000002AF9D1181A10BD030019680C4A0D4C17
:105370008A188A4322420FD15968094A04338A188D
:105380008A43224208D15968054A04338A188A435D
:105390002242F1D000E001331A78002AFBD1E1E784
:1053A000FFFEFEFE80808080F8B5C0460000000051
:1053B00001B40248844601BC604700BF8D02002052
:1053C00001B40248844601BC604700BFED010020E3
:1053D00001B40248844601BC604700BFA90D00200B
:1053E00001B40248844601BC604700BF8D0900201B
:1053F00001B40248844601BC604700BF5D01002043
:1054000001B40248844601BC604700BFC1000020CF
:1054100001B40248844601BC604700BF310B002044
:1054200001B40248844601BC604700BFCD0A002099
:1054300001B40248844601BC604700BF510300200C
:1054400001B40248844601BC604700BFD90A00206D
:1054500001B40248844601BC604700BFB509002082
:105460005769736450690000576973645069204438
:10547000796E616D6963204C69676874696E670055
:105480005769736450692053657269616C0000004C
:105490000904000009026400030100A032090400AD
:1054A000000103000000092111010001224701074A
:1054B000058403400005080B0102020200000904F4
:1054C000010001020200040524002001052401005E
:1054D00002042402020524060102070581030800D4
:1054E0001009040200020A00000007050202400041
:1054F0000007058202400000120100020000004087
:105500008A2E6A10000101020301000005590901F9
:10551000A10185010902A1020903150027FFFF006F
:105520000075109501B10309040905090609070969
:1055300008150027FFFFFF7F75209505B103C08583
:10554000020920A1020921150027FFFF00007510A4
:105550009501B102C085030922A102092115002786
:10556000FFFF000075109501B102092309240925E8
:1055700009270926150027FFFFFF7F75209505B134
:105580000209280929092A092B092C092D150026A9
:10559000FF0075089506B102C085040950A10209F3
:1055A0000309551500250875089502B10209211552
:1055B0000027FFFF000075109508B102095109523C
:1055C00009530954095109520953095409510952FF
:1055D00009530954095109520953095409510952EF
:1055E00009530954095109520953095409510952DF
:1055F000095309540951095209530954150026FF4A
:105600000075089520B102C085050960A102095501
:105610001500250875089501B10209610962150098
:1056200027FFFF000075109502B1020951095209C8
:10563000530954150026FF0075089504B102C08572
:10564000060970A10209711500250175089501B1BF
:1056500002C0C000808386898C8F9295989B9EA201
:10566000A5A7AAADB0B3B6B9BCBEC1C4C6C9CBCE9E
:10567000D0D3D5D7DADCDEE0E2E4E6E8EAEBEDEE23
:10568000F0F1F3F4F5F6F8F9FAFAFBFCFDFDFEFE95
:10569000FEFFFFFFFFFFFFFFFEFEFEFDFDFCFBFA2E
:1056A000FAF9F8F6F5F4F3F1F0EEEDEBEAE8E6E4FA
:1056B000E2E0DEDCDAD7D5D3D0CECBC9C6C4C1BEDA
:1056C000BCB9B6B3B0ADAAA7A5A29E9B9895928F80
:1056D0008C898683807C797673706D6A6764615D7E
:1056E0005A5855524F4C494643413E3B3936343166
:1056F0002F2C2A282523211F1D1B191715141211C1
:105700000F0E0C0B0A09070605050403020201012E
:105710000100000000000000010101020203040575
:10572000050607090A0B0C0E0F1112141517191B89
:105730001D1F212325282A2C2F313436393B3E4189
:105740004346494C4F5255585A5D6164676A6D70C3
:105750007376797C5C57001004FF000021622311EE
:10576000001442A4000410270000404B4C00E80342
:10577000000004000000881300000000000000008A
:105780000000000000000000010000000000000018
:105790000000000002000000000000000000000007
:1057A00003000000000000000000000004000000F2
:1057B00000000000000000000500000000000000E4
:1057C00000000000060000000000000000000000D3
:1057D00007000000000000000000000008000000BA
:1057E00000000000000000000900000000000000B0
:1057F000000000000A00000000000000000000009F
:105800000B00000000000000000000000C00000081
:1058100000000000000000000D000000000000007B
:10582000000000000E00000000000000000000006A
:105830000F00000000000000000000001000000049
:105840000000000000000000110000000000000047
:105850000000000012000000000000000000000036
:105860001300000000000000000000001400000011
:105870000000000000000000150000000000000013
:105880000000000016000000000000000000000002
:1058900017000000000000000000000018000000D9
:1058A00000000000000000001900000000000000DF
:1058B000000000001A0000000000000000000000CE
:1058C0001B00000000000000000000001C000000A1
:1058D00000000000000000001D00000000000000AB
:1058E000000000001E00000000000000000000009A
:1058F0001F00000000000000000000002000000069
:105900000000000000000000210000000000000076
:105910000000000022000000000000000000000065
:105920002300000000000000000000002400000030
:105930000000000000000000250000000000000042
:105940000000000026000000000000000000000031
:1059500027000000000000000000000028000000F8
:10596000000000000000000029000000000000000E
:10597000000000002A0000000000000000000000FD
:105980002B00000000000000000000002C000000C0
:1059900000000000000000002D00000000000000DA
:1059A000000000002E0000000000000000000000C9
:1059B0002F00000000000000000000003000000088
:1059C00000000000000000003100000000000000A6
:1059D0000000000032000000000000000000000095
:1059E0003300000000000000000000003400000050
:1059F0000000000000000000350000000000000072
:105A00000000000036000000000000000000000060
:105A10003700000000000000000000003800000017
:105A2000000000000000000039000000000000003D
:105A3000000000003A00000000000000000000002C
:105A40003B00000000000000000000003C000000DF
:105A500000000000000000003D0000000000000009
:105A6000000000003E0000000000000000000000F8
:105A70003F000000000000000000000040000000A7
:105A800000000000000000004100000000000000D5
:105A900000000000420000000000000000000000C4
:105AA000430000000000000000000000440000006F
:105AB00000000000000000004500000000000000A1
:105AC0000000000046000000000000000000000090
:105AD0004700000000000000000000004800000037
